{"contracts/ContactBook.sol":{"ContactBook":{"abi":[{"inputs":[],"stateMutability":"nonpayable","type":"constructor"},{"inputs":[{"internalType":"string","name":"_name","type":"string"},{"internalType":"address","name":"_wallet","type":"address"}],"name":"addContact","outputs":[],"stateMutability":"nonpayable","type":"function"},{"inputs":[],"name":"getContacts","outputs":[{"components":[{"internalType":"string","name":"name","type":"string"},{"internalType":"address","name":"wallet","type":"address"}],"internalType":"struct ContactBook.Contact[]","name":"","type":"tuple[]"}],"stateMutability":"view","type":"function"},{"inputs":[{"internalType":"uint256","name":"_index","type":"uint256"}],"name":"removeContact","outputs":[],"stateMutability":"nonpayable","type":"function"}],"evm":{"bytecode":{"linkReferences":{},"object":"608060405234801561001057600080fd5b50336000806101000a81548173ffffffffffffffffffffffffffffffffffffffff021916908373ffffffffffffffffffffffffffffffffffffffff160217905550610ff7806100606000396000f3fe608060405234801561001057600080fd5b50600436106100415760003560e01c8063603d57a114610046578063708adcd514610062578063db920b771461007e575b600080fd5b610060600480360381019061005b9190610605565b61009c565b005b61007c600480360381019061007791906107d6565b6102d0565b005b610086610417565b60405161009391906109bf565b60405180910390f35b60008054906101000a900473ffffffffffffffffffffffffffffffffffffffff1673ffffffffffffffffffffffffffffffffffffffff163373ffffffffffffffffffffffffffffffffffffffff161461012a576040517f08c379a000000000000000000000000000000000000000000000000000000000815260040161012190610a64565b60405180910390fd5b6001805490508110610171576040517f08c379a000000000000000000000000000000000000000000000000000000000815260040161016890610ad0565b60405180910390fd5b60008190505b600180805490506101889190610b1f565b81101561026a576001808261019d9190610b53565b815481106101ae576101ad610b87565b5b9060005260206000209060020201600182815481106101d0576101cf610b87565b5b9060005260206000209060020201600082018160000190816101f29190610dd8565b506001820160009054906101000a900473ffffffffffffffffffffffffffffffffffffffff168160010160006101000a81548173ffffffffffffffffffffffffffffffffffffffff021916908373ffffffffffffffffffffffffffffffffffffffff1602179055509050508080600101915050610177565b50600180548061027d5761027c610ec0565b5b6001900381819060005260206000209060020201600080820160006102a2919061055e565b6001820160006101000a81549073ffffffffffffffffffffffffffffffffffffffff02191690555050905550565b60008054906101000a900473ffffffffffffffffffffffffffffffffffffffff1673ffffffffffffffffffffffffffffffffffffffff163373ffffffffffffffffffffffffffffffffffffffff161461035e576040517f08c379a000000000000000000000000000000000000000000000000000000000815260040161035590610a64565b60405180910390fd5b600160405180604001604052808481526020018373ffffffffffffffffffffffffffffffffffffffff16815250908060018154018082558091505060019003906000526020600020906002020160009091909190915060008201518160000190816103c99190610eef565b5060208201518160010160006101000a81548173ffffffffffffffffffffffffffffffffffffffff021916908373ffffffffffffffffffffffffffffffffffffffff16021790555050505050565b60606001805480602002602001604051908101604052809291908181526020016000905b82821015610555578382906000526020600020906002020160405180604001604052908160008201805461046e90610be5565b80601f016020809104026020016040519081016040528092919081815260200182805461049a90610be5565b80156104e75780601f106104bc576101008083540402835291602001916104e7565b820191906000526020600020905b8154815290600101906020018083116104ca57829003601f168201915b505050505081526020016001820160009054906101000a900473ffffffffffffffffffffffffffffffffffffffff1673ffffffffffffffffffffffffffffffffffffffff1673ffffffffffffffffffffffffffffffffffffffff16815250508152602001906001019061043b565b50505050905090565b50805461056a90610be5565b6000825580601f1061057c575061059b565b601f01602090049060005260206000209081019061059a919061059e565b5b50565b5b808211156105b757600081600090555060010161059f565b5090565b6000604051905090565b600080fd5b600080fd5b6000819050919050565b6105e2816105cf565b81146105ed57600080fd5b50565b6000813590506105ff816105d9565b92915050565b60006020828403121561061b5761061a6105c5565b5b6000610629848285016105f0565b91505092915050565b600080fd5b600080fd5b6000601f19601f8301169050919050565b7f4e487b7100000000000000000000000000000000000000000000000000000000600052604160045260246000fd5b6106858261063c565b810181811067ffffffffffffffff821117156106a4576106a361064d565b5b80604052505050565b60006106b76105bb565b90506106c3828261067c565b919050565b600067ffffffffffffffff8211156106e3576106e261064d565b5b6106ec8261063c565b9050602081019050919050565b82818337600083830152505050565b600061071b610716846106c8565b6106ad565b90508281526020810184848401111561073757610736610637565b5b6107428482856106f9565b509392505050565b600082601f83011261075f5761075e610632565b5b813561076f848260208601610708565b91505092915050565b600073ffffffffffffffffffffffffffffffffffffffff82169050919050565b60006107a382610778565b9050919050565b6107b381610798565b81146107be57600080fd5b50565b6000813590506107d0816107aa565b92915050565b600080604083850312156107ed576107ec6105c5565b5b600083013567ffffffffffffffff81111561080b5761080a6105ca565b5b6108178582860161074a565b9250506020610828858286016107c1565b9150509250929050565b600081519050919050565b600082825260208201905092915050565b6000819050602082019050919050565b600081519050919050565b600082825260208201905092915050565b60005b8381101561089857808201518184015260208101905061087d565b60008484015250505050565b60006108af8261085e565b6108b98185610869565b93506108c981856020860161087a565b6108d28161063c565b840191505092915050565b6108e681610798565b82525050565b6000604083016000830151848203600086015261090982826108a4565b915050602083015161091e60208601826108dd565b508091505092915050565b600061093583836108ec565b905092915050565b6000602082019050919050565b600061095582610832565b61095f818561083d565b9350836020820285016109718561084e565b8060005b858110156109ad578484038952815161098e8582610929565b94506109998361093d565b925060208a01995050600181019050610975565b50829750879550505050505092915050565b600060208201905081810360008301526109d9818461094a565b905092915050565b600082825260208201905092915050565b7f4f6e6c79206f776e65722063616e2063616c6c20746869732066756e6374696f60008201527f6e2e000000000000000000000000000000000000000000000000000000000000602082015250565b6000610a4e6022836109e1565b9150610a59826109f2565b604082019050919050565b60006020820190508181036000830152610a7d81610a41565b9050919050565b7f496e646578206f7574206f6620626f756e64732e000000000000000000000000600082015250565b6000610aba6014836109e1565b9150610ac582610a84565b602082019050919050565b60006020820190508181036000830152610ae981610aad565b9050919050565b7f4e487b7100000000000000000000000000000000000000000000000000000000600052601160045260246000fd5b6000610b2a826105cf565b9150610b35836105cf565b9250828203905081811115610b4d57610b4c610af0565b5b92915050565b6000610b5e826105cf565b9150610b69836105cf565b9250828201905080821115610b8157610b80610af0565b5b92915050565b7f4e487b7100000000000000000000000000000000000000000000000000000000600052603260045260246000fd5b7f4e487b7100000000000000000000000000000000000000000000000000000000600052602260045260246000fd5b60006002820490506001821680610bfd57607f821691505b602082108103610c1057610c0f610bb6565b5b50919050565b600081549050610c2581610be5565b9050919050565b60008190508160005260206000209050919050565b60006020601f8301049050919050565b600082821b905092915050565b600060088302610c8e7fffffffffffffffffffffffffffffffffffffffffffffffffffffffffffffffff82610c51565b610c988683610c51565b95508019841693508086168417925050509392505050565b6000819050919050565b6000610cd5610cd0610ccb846105cf565b610cb0565b6105cf565b9050919050565b6000819050919050565b610cef83610cba565b610d03610cfb82610cdc565b848454610c5e565b825550505050565b600090565b610d18610d0b565b610d23818484610ce6565b505050565b5b81811015610d4757610d3c600082610d10565b600181019050610d29565b5050565b601f821115610d8c57610d5d81610c2c565b610d6684610c41565b81016020851015610d75578190505b610d89610d8185610c41565b830182610d28565b50505b505050565b600082821c905092915050565b6000610daf60001984600802610d91565b1980831691505092915050565b6000610dc88383610d9e565b9150826002028217905092915050565b818103610de6575050610ebe565b610def82610c16565b67ffffffffffffffff811115610e0857610e0761064d565b5b610e128254610be5565b610e1d828285610d4b565b6000601f831160018114610e4c5760008415610e3a578287015490505b610e448582610dbc565b865550610eb7565b601f198416610e5a87610c2c565b9650610e6586610c2c565b60005b82811015610e8d57848901548255600182019150600185019450602081019050610e68565b86831015610eaa5784890154610ea6601f891682610d9e565b8355505b6001600288020188555050505b5050505050505b565b7f4e487b7100000000000000000000000000000000000000000000000000000000600052603160045260246000fd5b610ef88261085e565b67ffffffffffffffff811115610f1157610f1061064d565b5b610f1b8254610be5565b610f26828285610d4b565b600060209050601f831160018114610f595760008415610f47578287015190505b610f518582610dbc565b865550610fb9565b601f198416610f6786610c2c565b60005b82811015610f8f57848901518255600182019150602085019450602081019050610f6a565b86831015610fac5784890151610fa8601f891682610d9e565b8355505b6001600288020188555050505b50505050505056fea264697066735822122046de98546632593bd1a8fa5254e053ea5ac2c56003532d9223b0f00d014d0b0164736f6c63430008180033","opcodes":"PUSH1 0x80 PUSH1 0x40 MSTORE CALLVALUE DUP1 ISZERO PUSH2 0x10 JUMPI PUSH1 0x0 DUP1 REVERT JUMPDEST POP CALLER PUSH1 0x0 DUP1 PUSH2 0x100 EXP DUP2 SLOAD DUP2 PUSH20 0xFFFFFFFFFFFFFFFFFFFFFFFFFFFFFFFFFFFFFFFF MUL NOT AND SWAP1 DUP4 PUSH20 0xFFFFFFFFFFFFFFFFFFFFFFFFFFFFFFFFFFFFFFFF AND MUL OR SWAP1 SSTORE POP PUSH2 0xFF7 DUP1 PUSH2 0x60 PUSH1 0x0 CODECOPY PUSH1 0x0 RETURN INVALID PUSH1 0x80 PUSH1 0x40 MSTORE CALLVALUE DUP1 ISZERO PUSH2 0x10 JUMPI PUSH1 0x0 DUP1 REVERT JUMPDEST POP PUSH1 0x4 CALLDATASIZE LT PUSH2 0x41 JUMPI PUSH1 0x0 CALLDATALOAD PUSH1 0xE0 SHR DUP1 PUSH4 0x603D57A1 EQ PUSH2 0x46 JUMPI DUP1 PUSH4 0x708ADCD5 EQ PUSH2 0x62 JUMPI DUP1 PUSH4 0xDB920B77 EQ PUSH2 0x7E JUMPI JUMPDEST PUSH1 0x0 DUP1 REVERT JUMPDEST PUSH2 0x60 PUSH1 0x4 DUP1 CALLDATASIZE SUB DUP2 ADD SWAP1 PUSH2 0x5B SWAP2 SWAP1 PUSH2 0x605 JUMP JUMPDEST PUSH2 0x9C JUMP JUMPDEST STOP JUMPDEST PUSH2 0x7C PUSH1 0x4 DUP1 CALLDATASIZE SUB DUP2 ADD SWAP1 PUSH2 0x77 SWAP2 SWAP1 PUSH2 0x7D6 JUMP JUMPDEST PUSH2 0x2D0 JUMP JUMPDEST STOP JUMPDEST PUSH2 0x86 PUSH2 0x417 JUMP JUMPDEST PUSH1 0x40 MLOAD PUSH2 0x93 SWAP2 SWAP1 PUSH2 0x9BF JUMP JUMPDEST PUSH1 0x40 MLOAD DUP1 SWAP2 SUB SWAP1 RETURN JUMPDEST PUSH1 0x0 DUP1 SLOAD SWAP1 PUSH2 0x100 EXP SWAP1 DIV PUSH20 0xFFFFFFFFFFFFFFFFFFFFFFFFFFFFFFFFFFFFFFFF AND PUSH20 0xFFFFFFFFFFFFFFFFFFFFFFFFFFFFFFFFFFFFFFFF AND CALLER PUSH20 0xFFFFFFFFFFFFFFFFFFFFFFFFFFFFFFFFFFFFFFFF AND EQ PUSH2 0x12A JUMPI PUSH1 0x40 MLOAD PUSH32 0x8C379A000000000000000000000000000000000000000000000000000000000 DUP2 MSTORE PUSH1 0x4 ADD PUSH2 0x121 SWAP1 PUSH2 0xA64 JUMP JUMPDEST PUSH1 0x40 MLOAD DUP1 SWAP2 SUB SWAP1 REVERT JUMPDEST PUSH1 0x1 DUP1 SLOAD SWAP1 POP DUP2 LT PUSH2 0x171 JUMPI PUSH1 0x40 MLOAD PUSH32 0x8C379A000000000000000000000000000000000000000000000000000000000 DUP2 MSTORE PUSH1 0x4 ADD PUSH2 0x168 SWAP1 PUSH2 0xAD0 JUMP JUMPDEST PUSH1 0x40 MLOAD DUP1 SWAP2 SUB SWAP1 REVERT JUMPDEST PUSH1 0x0 DUP2 SWAP1 POP JUMPDEST PUSH1 0x1 DUP1 DUP1 SLOAD SWAP1 POP PUSH2 0x188 SWAP2 SWAP1 PUSH2 0xB1F JUMP JUMPDEST DUP2 LT ISZERO PUSH2 0x26A JUMPI PUSH1 0x1 DUP1 DUP3 PUSH2 0x19D SWAP2 SWAP1 PUSH2 0xB53 JUMP JUMPDEST DUP2 SLOAD DUP2 LT PUSH2 0x1AE JUMPI PUSH2 0x1AD PUSH2 0xB87 JUMP JUMPDEST JUMPDEST SWAP1 PUSH1 0x0 MSTORE PUSH1 0x20 PUSH1 0x0 KECCAK256 SWAP1 PUSH1 0x2 MUL ADD PUSH1 0x1 DUP3 DUP2 SLOAD DUP2 LT PUSH2 0x1D0 JUMPI PUSH2 0x1CF PUSH2 0xB87 JUMP JUMPDEST JUMPDEST SWAP1 PUSH1 0x0 MSTORE PUSH1 0x20 PUSH1 0x0 KECCAK256 SWAP1 PUSH1 0x2 MUL ADD PUSH1 0x0 DUP3 ADD DUP2 PUSH1 0x0 ADD SWAP1 DUP2 PUSH2 0x1F2 SWAP2 SWAP1 PUSH2 0xDD8 JUMP JUMPDEST POP PUSH1 0x1 DUP3 ADD PUSH1 0x0 SWAP1 SLOAD SWAP1 PUSH2 0x100 EXP SWAP1 DIV PUSH20 0xFFFFFFFFFFFFFFFFFFFFFFFFFFFFFFFFFFFFFFFF AND DUP2 PUSH1 0x1 ADD PUSH1 0x0 PUSH2 0x100 EXP DUP2 SLOAD DUP2 PUSH20 0xFFFFFFFFFFFFFFFFFFFFFFFFFFFFFFFFFFFFFFFF MUL NOT AND SWAP1 DUP4 PUSH20 0xFFFFFFFFFFFFFFFFFFFFFFFFFFFFFFFFFFFFFFFF AND MUL OR SWAP1 SSTORE POP SWAP1 POP POP DUP1 DUP1 PUSH1 0x1 ADD SWAP2 POP POP PUSH2 0x177 JUMP JUMPDEST POP PUSH1 0x1 DUP1 SLOAD DUP1 PUSH2 0x27D JUMPI PUSH2 0x27C PUSH2 0xEC0 JUMP JUMPDEST JUMPDEST PUSH1 0x1 SWAP1 SUB DUP2 DUP2 SWAP1 PUSH1 0x0 MSTORE PUSH1 0x20 PUSH1 0x0 KECCAK256 SWAP1 PUSH1 0x2 MUL ADD PUSH1 0x0 DUP1 DUP3 ADD PUSH1 0x0 PUSH2 0x2A2 SWAP2 SWAP1 PUSH2 0x55E JUMP JUMPDEST PUSH1 0x1 DUP3 ADD PUSH1 0x0 PUSH2 0x100 EXP DUP2 SLOAD SWAP1 PUSH20 0xFFFFFFFFFFFFFFFFFFFFFFFFFFFFFFFFFFFFFFFF MUL NOT AND SWAP1 SSTORE POP POP SWAP1 SSTORE POP JUMP JUMPDEST PUSH1 0x0 DUP1 SLOAD SWAP1 PUSH2 0x100 EXP SWAP1 DIV PUSH20 0xFFFFFFFFFFFFFFFFFFFFFFFFFFFFFFFFFFFFFFFF AND PUSH20 0xFFFFFFFFFFFFFFFFFFFFFFFFFFFFFFFFFFFFFFFF AND CALLER PUSH20 0xFFFFFFFFFFFFFFFFFFFFFFFFFFFFFFFFFFFFFFFF AND EQ PUSH2 0x35E JUMPI PUSH1 0x40 MLOAD PUSH32 0x8C379A000000000000000000000000000000000000000000000000000000000 DUP2 MSTORE PUSH1 0x4 ADD PUSH2 0x355 SWAP1 PUSH2 0xA64 JUMP JUMPDEST PUSH1 0x40 MLOAD DUP1 SWAP2 SUB SWAP1 REVERT JUMPDEST PUSH1 0x1 PUSH1 0x40 MLOAD DUP1 PUSH1 0x40 ADD PUSH1 0x40 MSTORE DUP1 DUP5 DUP2 MSTORE PUSH1 0x20 ADD DUP4 PUSH20 0xFFFFFFFFFFFFFFFFFFFFFFFFFFFFFFFFFFFFFFFF AND DUP2 MSTORE POP SWAP1 DUP1 PUSH1 0x1 DUP2 SLOAD ADD DUP1 DUP3 SSTORE DUP1 SWAP2 POP POP PUSH1 0x1 SWAP1 SUB SWAP1 PUSH1 0x0 MSTORE PUSH1 0x20 PUSH1 0x0 KECCAK256 SWAP1 PUSH1 0x2 MUL ADD PUSH1 0x0 SWAP1 SWAP2 SWAP1 SWAP2 SWAP1 SWAP2 POP PUSH1 0x0 DUP3 ADD MLOAD DUP2 PUSH1 0x0 ADD SWAP1 DUP2 PUSH2 0x3C9 SWAP2 SWAP1 PUSH2 0xEEF JUMP JUMPDEST POP PUSH1 0x20 DUP3 ADD MLOAD DUP2 PUSH1 0x1 ADD PUSH1 0x0 PUSH2 0x100 EXP DUP2 SLOAD DUP2 PUSH20 0xFFFFFFFFFFFFFFFFFFFFFFFFFFFFFFFFFFFFFFFF MUL NOT AND SWAP1 DUP4 PUSH20 0xFFFFFFFFFFFFFFFFFFFFFFFFFFFFFFFFFFFFFFFF AND MUL OR SWAP1 SSTORE POP POP POP POP POP JUMP JUMPDEST PUSH1 0x60 PUSH1 0x1 DUP1 SLOAD DUP1 PUSH1 0x20 MUL PUSH1 0x20 ADD PUSH1 0x40 MLOAD SWAP1 DUP2 ADD PUSH1 0x40 MSTORE DUP1 SWAP3 SWAP2 SWAP1 DUP2 DUP2 MSTORE PUSH1 0x20 ADD PUSH1 0x0 SWAP1 JUMPDEST DUP3 DUP3 LT ISZERO PUSH2 0x555 JUMPI DUP4 DUP3 SWAP1 PUSH1 0x0 MSTORE PUSH1 0x20 PUSH1 0x0 KECCAK256 SWAP1 PUSH1 0x2 MUL ADD PUSH1 0x40 MLOAD DUP1 PUSH1 0x40 ADD PUSH1 0x40 MSTORE SWAP1 DUP2 PUSH1 0x0 DUP3 ADD DUP1 SLOAD PUSH2 0x46E SWAP1 PUSH2 0xBE5 JUMP JUMPDEST DUP1 PUSH1 0x1F ADD PUSH1 0x20 DUP1 SWAP2 DIV MUL PUSH1 0x20 ADD PUSH1 0x40 MLOAD SWAP1 DUP2 ADD PUSH1 0x40 MSTORE DUP1 SWAP3 SWAP2 SWAP1 DUP2 DUP2 MSTORE PUSH1 0x20 ADD DUP3 DUP1 SLOAD PUSH2 0x49A SWAP1 PUSH2 0xBE5 JUMP JUMPDEST DUP1 ISZERO PUSH2 0x4E7 JUMPI DUP1 PUSH1 0x1F LT PUSH2 0x4BC JUMPI PUSH2 0x100 DUP1 DUP4 SLOAD DIV MUL DUP4 MSTORE SWAP2 PUSH1 0x20 ADD SWAP2 PUSH2 0x4E7 JUMP JUMPDEST DUP3 ADD SWAP2 SWAP1 PUSH1 0x0 MSTORE PUSH1 0x20 PUSH1 0x0 KECCAK256 SWAP1 JUMPDEST DUP2 SLOAD DUP2 MSTORE SWAP1 PUSH1 0x1 ADD SWAP1 PUSH1 0x20 ADD DUP1 DUP4 GT PUSH2 0x4CA JUMPI DUP3 SWAP1 SUB PUSH1 0x1F AND DUP3 ADD SWAP2 JUMPDEST POP POP POP POP POP DUP2 MSTORE PUSH1 0x20 ADD PUSH1 0x1 DUP3 ADD PUSH1 0x0 SWAP1 SLOAD SWAP1 PUSH2 0x100 EXP SWAP1 DIV PUSH20 0xFFFFFFFFFFFFFFFFFFFFFFFFFFFFFFFFFFFFFFFF AND PUSH20 0xFFFFFFFFFFFFFFFFFFFFFFFFFFFFFFFFFFFFFFFF AND PUSH20 0xFFFFFFFFFFFFFFFFFFFFFFFFFFFFFFFFFFFFFFFF AND DUP2 MSTORE POP POP DUP2 MSTORE PUSH1 0x20 ADD SWAP1 PUSH1 0x1 ADD SWAP1 PUSH2 0x43B JUMP JUMPDEST POP POP POP POP SWAP1 POP SWAP1 JUMP JUMPDEST POP DUP1 SLOAD PUSH2 0x56A SWAP1 PUSH2 0xBE5 JUMP JUMPDEST PUSH1 0x0 DUP3 SSTORE DUP1 PUSH1 0x1F LT PUSH2 0x57C JUMPI POP PUSH2 0x59B JUMP JUMPDEST PUSH1 0x1F ADD PUSH1 0x20 SWAP1 DIV SWAP1 PUSH1 0x0 MSTORE PUSH1 0x20 PUSH1 0x0 KECCAK256 SWAP1 DUP2 ADD SWAP1 PUSH2 0x59A SWAP2 SWAP1 PUSH2 0x59E JUMP JUMPDEST JUMPDEST POP JUMP JUMPDEST JUMPDEST DUP1 DUP3 GT ISZERO PUSH2 0x5B7 JUMPI PUSH1 0x0 DUP2 PUSH1 0x0 SWAP1 SSTORE POP PUSH1 0x1 ADD PUSH2 0x59F JUMP JUMPDEST POP SWAP1 JUMP JUMPDEST PUSH1 0x0 PUSH1 0x40 MLOAD SWAP1 POP SWAP1 JUMP JUMPDEST PUSH1 0x0 DUP1 REVERT JUMPDEST PUSH1 0x0 DUP1 REVERT JUMPDEST PUSH1 0x0 DUP2 SWAP1 POP SWAP2 SWAP1 POP JUMP JUMPDEST PUSH2 0x5E2 DUP2 PUSH2 0x5CF JUMP JUMPDEST DUP2 EQ PUSH2 0x5ED JUMPI PUSH1 0x0 DUP1 REVERT JUMPDEST POP JUMP JUMPDEST PUSH1 0x0 DUP2 CALLDATALOAD SWAP1 POP PUSH2 0x5FF DUP2 PUSH2 0x5D9 JUMP JUMPDEST SWAP3 SWAP2 POP POP JUMP JUMPDEST PUSH1 0x0 PUSH1 0x20 DUP3 DUP5 SUB SLT ISZERO PUSH2 0x61B JUMPI PUSH2 0x61A PUSH2 0x5C5 JUMP JUMPDEST JUMPDEST PUSH1 0x0 PUSH2 0x629 DUP5 DUP3 DUP6 ADD PUSH2 0x5F0 JUMP JUMPDEST SWAP2 POP POP SWAP3 SWAP2 POP POP JUMP JUMPDEST PUSH1 0x0 DUP1 REVERT JUMPDEST PUSH1 0x0 DUP1 REVERT JUMPDEST PUSH1 0x0 PUSH1 0x1F NOT PUSH1 0x1F DUP4 ADD AND SWAP1 POP SWAP2 SWAP1 POP JUMP JUMPDEST PUSH32 0x4E487B7100000000000000000000000000000000000000000000000000000000 PUSH1 0x0 MSTORE PUSH1 0x41 PUSH1 0x4 MSTORE PUSH1 0x24 PUSH1 0x0 REVERT JUMPDEST PUSH2 0x685 DUP3 PUSH2 0x63C JUMP JUMPDEST DUP2 ADD DUP2 DUP2 LT PUSH8 0xFFFFFFFFFFFFFFFF DUP3 GT OR ISZERO PUSH2 0x6A4 JUMPI PUSH2 0x6A3 PUSH2 0x64D JUMP JUMPDEST JUMPDEST DUP1 PUSH1 0x40 MSTORE POP POP POP JUMP JUMPDEST PUSH1 0x0 PUSH2 0x6B7 PUSH2 0x5BB JUMP JUMPDEST SWAP1 POP PUSH2 0x6C3 DUP3 DUP3 PUSH2 0x67C JUMP JUMPDEST SWAP2 SWAP1 POP JUMP JUMPDEST PUSH1 0x0 PUSH8 0xFFFFFFFFFFFFFFFF DUP3 GT ISZERO PUSH2 0x6E3 JUMPI PUSH2 0x6E2 PUSH2 0x64D JUMP JUMPDEST JUMPDEST PUSH2 0x6EC DUP3 PUSH2 0x63C JUMP JUMPDEST SWAP1 POP PUSH1 0x20 DUP2 ADD SWAP1 POP SWAP2 SWAP1 POP JUMP JUMPDEST DUP3 DUP2 DUP4 CALLDATACOPY PUSH1 0x0 DUP4 DUP4 ADD MSTORE POP POP POP JUMP JUMPDEST PUSH1 0x0 PUSH2 0x71B PUSH2 0x716 DUP5 PUSH2 0x6C8 JUMP JUMPDEST PUSH2 0x6AD JUMP JUMPDEST SWAP1 POP DUP3 DUP2 MSTORE PUSH1 0x20 DUP2 ADD DUP5 DUP5 DUP5 ADD GT ISZERO PUSH2 0x737 JUMPI PUSH2 0x736 PUSH2 0x637 JUMP JUMPDEST JUMPDEST PUSH2 0x742 DUP5 DUP3 DUP6 PUSH2 0x6F9 JUMP JUMPDEST POP SWAP4 SWAP3 POP POP POP JUMP JUMPDEST PUSH1 0x0 DUP3 PUSH1 0x1F DUP4 ADD SLT PUSH2 0x75F JUMPI PUSH2 0x75E PUSH2 0x632 JUMP JUMPDEST JUMPDEST DUP2 CALLDATALOAD PUSH2 0x76F DUP5 DUP3 PUSH1 0x20 DUP7 ADD PUSH2 0x708 JUMP JUMPDEST SWAP2 POP POP SWAP3 SWAP2 POP POP JUMP JUMPDEST PUSH1 0x0 PUSH20 0xFFFFFFFFFFFFFFFFFFFFFFFFFFFFFFFFFFFFFFFF DUP3 AND SWAP1 POP SWAP2 SWAP1 POP JUMP JUMPDEST PUSH1 0x0 PUSH2 0x7A3 DUP3 PUSH2 0x778 JUMP JUMPDEST SWAP1 POP SWAP2 SWAP1 POP JUMP JUMPDEST PUSH2 0x7B3 DUP2 PUSH2 0x798 JUMP JUMPDEST DUP2 EQ PUSH2 0x7BE JUMPI PUSH1 0x0 DUP1 REVERT JUMPDEST POP JUMP JUMPDEST PUSH1 0x0 DUP2 CALLDATALOAD SWAP1 POP PUSH2 0x7D0 DUP2 PUSH2 0x7AA JUMP JUMPDEST SWAP3 SWAP2 POP POP JUMP JUMPDEST PUSH1 0x0 DUP1 PUSH1 0x40 DUP4 DUP6 SUB SLT ISZERO PUSH2 0x7ED JUMPI PUSH2 0x7EC PUSH2 0x5C5 JUMP JUMPDEST JUMPDEST PUSH1 0x0 DUP4 ADD CALLDATALOAD PUSH8 0xFFFFFFFFFFFFFFFF DUP2 GT ISZERO PUSH2 0x80B JUMPI PUSH2 0x80A PUSH2 0x5CA JUMP JUMPDEST JUMPDEST PUSH2 0x817 DUP6 DUP3 DUP7 ADD PUSH2 0x74A JUMP JUMPDEST SWAP3 POP POP PUSH1 0x20 PUSH2 0x828 DUP6 DUP3 DUP7 ADD PUSH2 0x7C1 JUMP JUMPDEST SWAP2 POP POP SWAP3 POP SWAP3 SWAP1 POP JUMP JUMPDEST PUSH1 0x0 DUP2 MLOAD SWAP1 POP SWAP2 SWAP1 POP JUMP JUMPDEST PUSH1 0x0 DUP3 DUP3 MSTORE PUSH1 0x20 DUP3 ADD SWAP1 POP SWAP3 SWAP2 POP POP JUMP JUMPDEST PUSH1 0x0 DUP2 SWAP1 POP PUSH1 0x20 DUP3 ADD SWAP1 POP SWAP2 SWAP1 POP JUMP JUMPDEST PUSH1 0x0 DUP2 MLOAD SWAP1 POP SWAP2 SWAP1 POP JUMP JUMPDEST PUSH1 0x0 DUP3 DUP3 MSTORE PUSH1 0x20 DUP3 ADD SWAP1 POP SWAP3 SWAP2 POP POP JUMP JUMPDEST PUSH1 0x0 JUMPDEST DUP4 DUP2 LT ISZERO PUSH2 0x898 JUMPI DUP1 DUP3 ADD MLOAD DUP2 DUP5 ADD MSTORE PUSH1 0x20 DUP2 ADD SWAP1 POP PUSH2 0x87D JUMP JUMPDEST PUSH1 0x0 DUP5 DUP5 ADD MSTORE POP POP POP POP JUMP JUMPDEST PUSH1 0x0 PUSH2 0x8AF DUP3 PUSH2 0x85E JUMP JUMPDEST PUSH2 0x8B9 DUP2 DUP6 PUSH2 0x869 JUMP JUMPDEST SWAP4 POP PUSH2 0x8C9 DUP2 DUP6 PUSH1 0x20 DUP7 ADD PUSH2 0x87A JUMP JUMPDEST PUSH2 0x8D2 DUP2 PUSH2 0x63C JUMP JUMPDEST DUP5 ADD SWAP2 POP POP SWAP3 SWAP2 POP POP JUMP JUMPDEST PUSH2 0x8E6 DUP2 PUSH2 0x798 JUMP JUMPDEST DUP3 MSTORE POP POP JUMP JUMPDEST PUSH1 0x0 PUSH1 0x40 DUP4 ADD PUSH1 0x0 DUP4 ADD MLOAD DUP5 DUP3 SUB PUSH1 0x0 DUP7 ADD MSTORE PUSH2 0x909 DUP3 DUP3 PUSH2 0x8A4 JUMP JUMPDEST SWAP2 POP POP PUSH1 0x20 DUP4 ADD MLOAD PUSH2 0x91E PUSH1 0x20 DUP7 ADD DUP3 PUSH2 0x8DD JUMP JUMPDEST POP DUP1 SWAP2 POP POP SWAP3 SWAP2 POP POP JUMP JUMPDEST PUSH1 0x0 PUSH2 0x935 DUP4 DUP4 PUSH2 0x8EC JUMP JUMPDEST SWAP1 POP SWAP3 SWAP2 POP POP JUMP JUMPDEST PUSH1 0x0 PUSH1 0x20 DUP3 ADD SWAP1 POP SWAP2 SWAP1 POP JUMP JUMPDEST PUSH1 0x0 PUSH2 0x955 DUP3 PUSH2 0x832 JUMP JUMPDEST PUSH2 0x95F DUP2 DUP6 PUSH2 0x83D JUMP JUMPDEST SWAP4 POP DUP4 PUSH1 0x20 DUP3 MUL DUP6 ADD PUSH2 0x971 DUP6 PUSH2 0x84E JUMP JUMPDEST DUP1 PUSH1 0x0 JUMPDEST DUP6 DUP2 LT ISZERO PUSH2 0x9AD JUMPI DUP5 DUP5 SUB DUP10 MSTORE DUP2 MLOAD PUSH2 0x98E DUP6 DUP3 PUSH2 0x929 JUMP JUMPDEST SWAP5 POP PUSH2 0x999 DUP4 PUSH2 0x93D JUMP JUMPDEST SWAP3 POP PUSH1 0x20 DUP11 ADD SWAP10 POP POP PUSH1 0x1 DUP2 ADD SWAP1 POP PUSH2 0x975 JUMP JUMPDEST POP DUP3 SWAP8 POP DUP8 SWAP6 POP POP POP POP POP POP SWAP3 SWAP2 POP POP JUMP JUMPDEST PUSH1 0x0 PUSH1 0x20 DUP3 ADD SWAP1 POP DUP2 DUP2 SUB PUSH1 0x0 DUP4 ADD MSTORE PUSH2 0x9D9 DUP2 DUP5 PUSH2 0x94A JUMP JUMPDEST SWAP1 POP SWAP3 SWAP2 POP POP JUMP JUMPDEST PUSH1 0x0 DUP3 DUP3 MSTORE PUSH1 0x20 DUP3 ADD SWAP1 POP SWAP3 SWAP2 POP POP JUMP JUMPDEST PUSH32 0x4F6E6C79206F776E65722063616E2063616C6C20746869732066756E6374696F PUSH1 0x0 DUP3 ADD MSTORE PUSH32 0x6E2E000000000000000000000000000000000000000000000000000000000000 PUSH1 0x20 DUP3 ADD MSTORE POP JUMP JUMPDEST PUSH1 0x0 PUSH2 0xA4E PUSH1 0x22 DUP4 PUSH2 0x9E1 JUMP JUMPDEST SWAP2 POP PUSH2 0xA59 DUP3 PUSH2 0x9F2 JUMP JUMPDEST PUSH1 0x40 DUP3 ADD SWAP1 POP SWAP2 SWAP1 POP JUMP JUMPDEST PUSH1 0x0 PUSH1 0x20 DUP3 ADD SWAP1 POP DUP2 DUP2 SUB PUSH1 0x0 DUP4 ADD MSTORE PUSH2 0xA7D DUP2 PUSH2 0xA41 JUMP JUMPDEST SWAP1 POP SWAP2 SWAP1 POP JUMP JUMPDEST PUSH32 0x496E646578206F7574206F6620626F756E64732E000000000000000000000000 PUSH1 0x0 DUP3 ADD MSTORE POP JUMP JUMPDEST PUSH1 0x0 PUSH2 0xABA PUSH1 0x14 DUP4 PUSH2 0x9E1 JUMP JUMPDEST SWAP2 POP PUSH2 0xAC5 DUP3 PUSH2 0xA84 JUMP JUMPDEST PUSH1 0x20 DUP3 ADD SWAP1 POP SWAP2 SWAP1 POP JUMP JUMPDEST PUSH1 0x0 PUSH1 0x20 DUP3 ADD SWAP1 POP DUP2 DUP2 SUB PUSH1 0x0 DUP4 ADD MSTORE PUSH2 0xAE9 DUP2 PUSH2 0xAAD JUMP JUMPDEST SWAP1 POP SWAP2 SWAP1 POP JUMP JUMPDEST PUSH32 0x4E487B7100000000000000000000000000000000000000000000000000000000 PUSH1 0x0 MSTORE PUSH1 0x11 PUSH1 0x4 MSTORE PUSH1 0x24 PUSH1 0x0 REVERT JUMPDEST PUSH1 0x0 PUSH2 0xB2A DUP3 PUSH2 0x5CF JUMP JUMPDEST SWAP2 POP PUSH2 0xB35 DUP4 PUSH2 0x5CF JUMP JUMPDEST SWAP3 POP DUP3 DUP3 SUB SWAP1 POP DUP2 DUP2 GT ISZERO PUSH2 0xB4D JUMPI PUSH2 0xB4C PUSH2 0xAF0 JUMP JUMPDEST JUMPDEST SWAP3 SWAP2 POP POP JUMP JUMPDEST PUSH1 0x0 PUSH2 0xB5E DUP3 PUSH2 0x5CF JUMP JUMPDEST SWAP2 POP PUSH2 0xB69 DUP4 PUSH2 0x5CF JUMP JUMPDEST SWAP3 POP DUP3 DUP3 ADD SWAP1 POP DUP1 DUP3 GT ISZERO PUSH2 0xB81 JUMPI PUSH2 0xB80 PUSH2 0xAF0 JUMP JUMPDEST JUMPDEST SWAP3 SWAP2 POP POP JUMP JUMPDEST PUSH32 0x4E487B7100000000000000000000000000000000000000000000000000000000 PUSH1 0x0 MSTORE PUSH1 0x32 PUSH1 0x4 MSTORE PUSH1 0x24 PUSH1 0x0 REVERT JUMPDEST PUSH32 0x4E487B7100000000000000000000000000000000000000000000000000000000 PUSH1 0x0 MSTORE PUSH1 0x22 PUSH1 0x4 MSTORE PUSH1 0x24 PUSH1 0x0 REVERT JUMPDEST PUSH1 0x0 PUSH1 0x2 DUP3 DIV SWAP1 POP PUSH1 0x1 DUP3 AND DUP1 PUSH2 0xBFD JUMPI PUSH1 0x7F DUP3 AND SWAP2 POP JUMPDEST PUSH1 0x20 DUP3 LT DUP2 SUB PUSH2 0xC10 JUMPI PUSH2 0xC0F PUSH2 0xBB6 JUMP JUMPDEST JUMPDEST POP SWAP2 SWAP1 POP JUMP JUMPDEST PUSH1 0x0 DUP2 SLOAD SWAP1 POP PUSH2 0xC25 DUP2 PUSH2 0xBE5 JUMP JUMPDEST SWAP1 POP SWAP2 SWAP1 POP JUMP JUMPDEST PUSH1 0x0 DUP2 SWAP1 POP DUP2 PUSH1 0x0 MSTORE PUSH1 0x20 PUSH1 0x0 KECCAK256 SWAP1 POP SWAP2 SWAP1 POP JUMP JUMPDEST PUSH1 0x0 PUSH1 0x20 PUSH1 0x1F DUP4 ADD DIV SWAP1 POP SWAP2 SWAP1 POP JUMP JUMPDEST PUSH1 0x0 DUP3 DUP3 SHL SWAP1 POP SWAP3 SWAP2 POP POP JUMP JUMPDEST PUSH1 0x0 PUSH1 0x8 DUP4 MUL PUSH2 0xC8E PUSH32 0xFFFFFFFFFFFFFFFFFFFFFFFFFFFFFFFFFFFFFFFFFFFFFFFFFFFFFFFFFFFFFFFF DUP3 PUSH2 0xC51 JUMP JUMPDEST PUSH2 0xC98 DUP7 DUP4 PUSH2 0xC51 JUMP JUMPDEST SWAP6 POP DUP1 NOT DUP5 AND SWAP4 POP DUP1 DUP7 AND DUP5 OR SWAP3 POP POP POP SWAP4 SWAP3 POP POP POP JUMP JUMPDEST PUSH1 0x0 DUP2 SWAP1 POP SWAP2 SWAP1 POP JUMP JUMPDEST PUSH1 0x0 PUSH2 0xCD5 PUSH2 0xCD0 PUSH2 0xCCB DUP5 PUSH2 0x5CF JUMP JUMPDEST PUSH2 0xCB0 JUMP JUMPDEST PUSH2 0x5CF JUMP JUMPDEST SWAP1 POP SWAP2 SWAP1 POP JUMP JUMPDEST PUSH1 0x0 DUP2 SWAP1 POP SWAP2 SWAP1 POP JUMP JUMPDEST PUSH2 0xCEF DUP4 PUSH2 0xCBA JUMP JUMPDEST PUSH2 0xD03 PUSH2 0xCFB DUP3 PUSH2 0xCDC JUMP JUMPDEST DUP5 DUP5 SLOAD PUSH2 0xC5E JUMP JUMPDEST DUP3 SSTORE POP POP POP POP JUMP JUMPDEST PUSH1 0x0 SWAP1 JUMP JUMPDEST PUSH2 0xD18 PUSH2 0xD0B JUMP JUMPDEST PUSH2 0xD23 DUP2 DUP5 DUP5 PUSH2 0xCE6 JUMP JUMPDEST POP POP POP JUMP JUMPDEST JUMPDEST DUP2 DUP2 LT ISZERO PUSH2 0xD47 JUMPI PUSH2 0xD3C PUSH1 0x0 DUP3 PUSH2 0xD10 JUMP JUMPDEST PUSH1 0x1 DUP2 ADD SWAP1 POP PUSH2 0xD29 JUMP JUMPDEST POP POP JUMP JUMPDEST PUSH1 0x1F DUP3 GT ISZERO PUSH2 0xD8C JUMPI PUSH2 0xD5D DUP2 PUSH2 0xC2C JUMP JUMPDEST PUSH2 0xD66 DUP5 PUSH2 0xC41 JUMP JUMPDEST DUP2 ADD PUSH1 0x20 DUP6 LT ISZERO PUSH2 0xD75 JUMPI DUP2 SWAP1 POP JUMPDEST PUSH2 0xD89 PUSH2 0xD81 DUP6 PUSH2 0xC41 JUMP JUMPDEST DUP4 ADD DUP3 PUSH2 0xD28 JUMP JUMPDEST POP POP JUMPDEST POP POP POP JUMP JUMPDEST PUSH1 0x0 DUP3 DUP3 SHR SWAP1 POP SWAP3 SWAP2 POP POP JUMP JUMPDEST PUSH1 0x0 PUSH2 0xDAF PUSH1 0x0 NOT DUP5 PUSH1 0x8 MUL PUSH2 0xD91 JUMP JUMPDEST NOT DUP1 DUP4 AND SWAP2 POP POP SWAP3 SWAP2 POP POP JUMP JUMPDEST PUSH1 0x0 PUSH2 0xDC8 DUP4 DUP4 PUSH2 0xD9E JUMP JUMPDEST SWAP2 POP DUP3 PUSH1 0x2 MUL DUP3 OR SWAP1 POP SWAP3 SWAP2 POP POP JUMP JUMPDEST DUP2 DUP2 SUB PUSH2 0xDE6 JUMPI POP POP PUSH2 0xEBE JUMP JUMPDEST PUSH2 0xDEF DUP3 PUSH2 0xC16 JUMP JUMPDEST PUSH8 0xFFFFFFFFFFFFFFFF DUP2 GT ISZERO PUSH2 0xE08 JUMPI PUSH2 0xE07 PUSH2 0x64D JUMP JUMPDEST JUMPDEST PUSH2 0xE12 DUP3 SLOAD PUSH2 0xBE5 JUMP JUMPDEST PUSH2 0xE1D DUP3 DUP3 DUP6 PUSH2 0xD4B JUMP JUMPDEST PUSH1 0x0 PUSH1 0x1F DUP4 GT PUSH1 0x1 DUP2 EQ PUSH2 0xE4C JUMPI PUSH1 0x0 DUP5 ISZERO PUSH2 0xE3A JUMPI DUP3 DUP8 ADD SLOAD SWAP1 POP JUMPDEST PUSH2 0xE44 DUP6 DUP3 PUSH2 0xDBC JUMP JUMPDEST DUP7 SSTORE POP PUSH2 0xEB7 JUMP JUMPDEST PUSH1 0x1F NOT DUP5 AND PUSH2 0xE5A DUP8 PUSH2 0xC2C JUMP JUMPDEST SWAP7 POP PUSH2 0xE65 DUP7 PUSH2 0xC2C JUMP JUMPDEST PUSH1 0x0 JUMPDEST DUP3 DUP2 LT ISZERO PUSH2 0xE8D JUMPI DUP5 DUP10 ADD SLOAD DUP3 SSTORE PUSH1 0x1 DUP3 ADD SWAP2 POP PUSH1 0x1 DUP6 ADD SWAP5 POP PUSH1 0x20 DUP2 ADD SWAP1 POP PUSH2 0xE68 JUMP JUMPDEST DUP7 DUP4 LT ISZERO PUSH2 0xEAA JUMPI DUP5 DUP10 ADD SLOAD PUSH2 0xEA6 PUSH1 0x1F DUP10 AND DUP3 PUSH2 0xD9E JUMP JUMPDEST DUP4 SSTORE POP JUMPDEST PUSH1 0x1 PUSH1 0x2 DUP9 MUL ADD DUP9 SSTORE POP POP POP JUMPDEST POP POP POP POP POP POP JUMPDEST JUMP JUMPDEST PUSH32 0x4E487B7100000000000000000000000000000000000000000000000000000000 PUSH1 0x0 MSTORE PUSH1 0x31 PUSH1 0x4 MSTORE PUSH1 0x24 PUSH1 0x0 REVERT JUMPDEST PUSH2 0xEF8 DUP3 PUSH2 0x85E JUMP JUMPDEST PUSH8 0xFFFFFFFFFFFFFFFF DUP2 GT ISZERO PUSH2 0xF11 JUMPI PUSH2 0xF10 PUSH2 0x64D JUMP JUMPDEST JUMPDEST PUSH2 0xF1B DUP3 SLOAD PUSH2 0xBE5 JUMP JUMPDEST PUSH2 0xF26 DUP3 DUP3 DUP6 PUSH2 0xD4B JUMP JUMPDEST PUSH1 0x0 PUSH1 0x20 SWAP1 POP PUSH1 0x1F DUP4 GT PUSH1 0x1 DUP2 EQ PUSH2 0xF59 JUMPI PUSH1 0x0 DUP5 ISZERO PUSH2 0xF47 JUMPI DUP3 DUP8 ADD MLOAD SWAP1 POP JUMPDEST PUSH2 0xF51 DUP6 DUP3 PUSH2 0xDBC JUMP JUMPDEST DUP7 SSTORE POP PUSH2 0xFB9 JUMP JUMPDEST PUSH1 0x1F NOT DUP5 AND PUSH2 0xF67 DUP7 PUSH2 0xC2C JUMP JUMPDEST PUSH1 0x0 JUMPDEST DUP3 DUP2 LT ISZERO PUSH2 0xF8F JUMPI DUP5 DUP10 ADD MLOAD DUP3 SSTORE PUSH1 0x1 DUP3 ADD SWAP2 POP PUSH1 0x20 DUP6 ADD SWAP5 POP PUSH1 0x20 DUP2 ADD SWAP1 POP PUSH2 0xF6A JUMP JUMPDEST DUP7 DUP4 LT ISZERO PUSH2 0xFAC JUMPI DUP5 DUP10 ADD MLOAD PUSH2 0xFA8 PUSH1 0x1F DUP10 AND DUP3 PUSH2 0xD9E JUMP JUMPDEST DUP4 SSTORE POP JUMPDEST PUSH1 0x1 PUSH1 0x2 DUP9 MUL ADD DUP9 SSTORE POP POP POP JUMPDEST POP POP POP POP POP POP JUMP INVALID LOG2 PUSH5 0x6970667358 0x22 SLT KECCAK256 CHAINID 0xDE SWAP9 SLOAD PUSH7 0x32593BD1A8FA52 SLOAD 0xE0 MSTORE8 0xEA GAS 0xC2 0xC5 PUSH1 0x3 MSTORE8 0x2D SWAP3 0x23 0xB0 CREATE 0xD ADD 0x4D SIGNEXTEND ADD PUSH5 0x736F6C6343 STOP ADDMOD XOR STOP CALLER "},"methodIdentifiers":{"addContact(string,address)":"708adcd5","getContacts()":"db920b77","removeContact(uint256)":"603d57a1"}}}}}