{
  "_format": "hh-sol-artifact-1",
  "contractName": "ContactBook",
  "sourceName": "contracts/ContactBook.sol",
  "abi": [
    {
      "inputs": [],
      "stateMutability": "nonpayable",
      "type": "constructor"
    },
    {
      "inputs": [
        {
          "internalType": "string",
          "name": "_name",
          "type": "string"
        },
        {
          "internalType": "address",
          "name": "_wallet",
          "type": "address"
        }
      ],
      "name": "addContact",
      "outputs": [],
      "stateMutability": "nonpayable",
      "type": "function"
    },
    {
      "inputs": [],
      "name": "getContacts",
      "outputs": [
        {
          "components": [
            {
              "internalType": "string",
              "name": "name",
              "type": "string"
            },
            {
              "internalType": "address",
              "name": "wallet",
              "type": "address"
            }
          ],
          "internalType": "struct ContactBook.Contact[]",
          "name": "",
          "type": "tuple[]"
        }
      ],
      "stateMutability": "view",
      "type": "function"
    },
    {
      "inputs": [
        {
          "internalType": "uint256",
          "name": "_index",
          "type": "uint256"
        }
      ],
      "name": "removeContact",
      "outputs": [],
      "stateMutability": "nonpayable",
      "type": "function"
    }
  ],
  "bytecode": "0x608060405234801561001057600080fd5b50336000806101000a81548173ffffffffffffffffffffffffffffffffffffffff021916908373ffffffffffffffffffffffffffffffffffffffff160217905550610ff7806100606000396000f3fe608060405234801561001057600080fd5b50600436106100415760003560e01c8063603d57a114610046578063708adcd514610062578063db920b771461007e575b600080fd5b610060600480360381019061005b9190610605565b61009c565b005b61007c600480360381019061007791906107d6565b6102d0565b005b610086610417565b60405161009391906109bf565b60405180910390f35b60008054906101000a900473ffffffffffffffffffffffffffffffffffffffff1673ffffffffffffffffffffffffffffffffffffffff163373ffffffffffffffffffffffffffffffffffffffff161461012a576040517f08c379a000000000000000000000000000000000000000000000000000000000815260040161012190610a64565b60405180910390fd5b6001805490508110610171576040517f08c379a000000000000000000000000000000000000000000000000000000000815260040161016890610ad0565b60405180910390fd5b60008190505b600180805490506101889190610b1f565b81101561026a576001808261019d9190610b53565b815481106101ae576101ad610b87565b5b9060005260206000209060020201600182815481106101d0576101cf610b87565b5b9060005260206000209060020201600082018160000190816101f29190610dd8565b506001820160009054906101000a900473ffffffffffffffffffffffffffffffffffffffff168160010160006101000a81548173ffffffffffffffffffffffffffffffffffffffff021916908373ffffffffffffffffffffffffffffffffffffffff1602179055509050508080600101915050610177565b50600180548061027d5761027c610ec0565b5b6001900381819060005260206000209060020201600080820160006102a2919061055e565b6001820160006101000a81549073ffffffffffffffffffffffffffffffffffffffff02191690555050905550565b60008054906101000a900473ffffffffffffffffffffffffffffffffffffffff1673ffffffffffffffffffffffffffffffffffffffff163373ffffffffffffffffffffffffffffffffffffffff161461035e576040517f08c379a000000000000000000000000000000000000000000000000000000000815260040161035590610a64565b60405180910390fd5b600160405180604001604052808481526020018373ffffffffffffffffffffffffffffffffffffffff16815250908060018154018082558091505060019003906000526020600020906002020160009091909190915060008201518160000190816103c99190610eef565b5060208201518160010160006101000a81548173ffffffffffffffffffffffffffffffffffffffff021916908373ffffffffffffffffffffffffffffffffffffffff16021790555050505050565b60606001805480602002602001604051908101604052809291908181526020016000905b82821015610555578382906000526020600020906002020160405180604001604052908160008201805461046e90610be5565b80601f016020809104026020016040519081016040528092919081815260200182805461049a90610be5565b80156104e75780601f106104bc576101008083540402835291602001916104e7565b820191906000526020600020905b8154815290600101906020018083116104ca57829003601f168201915b505050505081526020016001820160009054906101000a900473ffffffffffffffffffffffffffffffffffffffff1673ffffffffffffffffffffffffffffffffffffffff1673ffffffffffffffffffffffffffffffffffffffff16815250508152602001906001019061043b565b50505050905090565b50805461056a90610be5565b6000825580601f1061057c575061059b565b601f01602090049060005260206000209081019061059a919061059e565b5b50565b5b808211156105b757600081600090555060010161059f565b5090565b6000604051905090565b600080fd5b600080fd5b6000819050919050565b6105e2816105cf565b81146105ed57600080fd5b50565b6000813590506105ff816105d9565b92915050565b60006020828403121561061b5761061a6105c5565b5b6000610629848285016105f0565b91505092915050565b600080fd5b600080fd5b6000601f19601f8301169050919050565b7f4e487b7100000000000000000000000000000000000000000000000000000000600052604160045260246000fd5b6106858261063c565b810181811067ffffffffffffffff821117156106a4576106a361064d565b5b80604052505050565b60006106b76105bb565b90506106c3828261067c565b919050565b600067ffffffffffffffff8211156106e3576106e261064d565b5b6106ec8261063c565b9050602081019050919050565b82818337600083830152505050565b600061071b610716846106c8565b6106ad565b90508281526020810184848401111561073757610736610637565b5b6107428482856106f9565b509392505050565b600082601f83011261075f5761075e610632565b5b813561076f848260208601610708565b91505092915050565b600073ffffffffffffffffffffffffffffffffffffffff82169050919050565b60006107a382610778565b9050919050565b6107b381610798565b81146107be57600080fd5b50565b6000813590506107d0816107aa565b92915050565b600080604083850312156107ed576107ec6105c5565b5b600083013567ffffffffffffffff81111561080b5761080a6105ca565b5b6108178582860161074a565b9250506020610828858286016107c1565b9150509250929050565b600081519050919050565b600082825260208201905092915050565b6000819050602082019050919050565b600081519050919050565b600082825260208201905092915050565b60005b8381101561089857808201518184015260208101905061087d565b60008484015250505050565b60006108af8261085e565b6108b98185610869565b93506108c981856020860161087a565b6108d28161063c565b840191505092915050565b6108e681610798565b82525050565b6000604083016000830151848203600086015261090982826108a4565b915050602083015161091e60208601826108dd565b508091505092915050565b600061093583836108ec565b905092915050565b6000602082019050919050565b600061095582610832565b61095f818561083d565b9350836020820285016109718561084e565b8060005b858110156109ad578484038952815161098e8582610929565b94506109998361093d565b925060208a01995050600181019050610975565b50829750879550505050505092915050565b600060208201905081810360008301526109d9818461094a565b905092915050565b600082825260208201905092915050565b7f4f6e6c79206f776e65722063616e2063616c6c20746869732066756e6374696f60008201527f6e2e000000000000000000000000000000000000000000000000000000000000602082015250565b6000610a4e6022836109e1565b9150610a59826109f2565b604082019050919050565b60006020820190508181036000830152610a7d81610a41565b9050919050565b7f496e646578206f7574206f6620626f756e64732e000000000000000000000000600082015250565b6000610aba6014836109e1565b9150610ac582610a84565b602082019050919050565b60006020820190508181036000830152610ae981610aad565b9050919050565b7f4e487b7100000000000000000000000000000000000000000000000000000000600052601160045260246000fd5b6000610b2a826105cf565b9150610b35836105cf565b9250828203905081811115610b4d57610b4c610af0565b5b92915050565b6000610b5e826105cf565b9150610b69836105cf565b9250828201905080821115610b8157610b80610af0565b5b92915050565b7f4e487b7100000000000000000000000000000000000000000000000000000000600052603260045260246000fd5b7f4e487b7100000000000000000000000000000000000000000000000000000000600052602260045260246000fd5b60006002820490506001821680610bfd57607f821691505b602082108103610c1057610c0f610bb6565b5b50919050565b600081549050610c2581610be5565b9050919050565b60008190508160005260206000209050919050565b60006020601f8301049050919050565b600082821b905092915050565b600060088302610c8e7fffffffffffffffffffffffffffffffffffffffffffffffffffffffffffffffff82610c51565b610c988683610c51565b95508019841693508086168417925050509392505050565b6000819050919050565b6000610cd5610cd0610ccb846105cf565b610cb0565b6105cf565b9050919050565b6000819050919050565b610cef83610cba565b610d03610cfb82610cdc565b848454610c5e565b825550505050565b600090565b610d18610d0b565b610d23818484610ce6565b505050565b5b81811015610d4757610d3c600082610d10565b600181019050610d29565b5050565b601f821115610d8c57610d5d81610c2c565b610d6684610c41565b81016020851015610d75578190505b610d89610d8185610c41565b830182610d28565b50505b505050565b600082821c905092915050565b6000610daf60001984600802610d91565b1980831691505092915050565b6000610dc88383610d9e565b9150826002028217905092915050565b818103610de6575050610ebe565b610def82610c16565b67ffffffffffffffff811115610e0857610e0761064d565b5b610e128254610be5565b610e1d828285610d4b565b6000601f831160018114610e4c5760008415610e3a578287015490505b610e448582610dbc565b865550610eb7565b601f198416610e5a87610c2c565b9650610e6586610c2c565b60005b82811015610e8d57848901548255600182019150600185019450602081019050610e68565b86831015610eaa5784890154610ea6601f891682610d9e565b8355505b6001600288020188555050505b5050505050505b565b7f4e487b7100000000000000000000000000000000000000000000000000000000600052603160045260246000fd5b610ef88261085e565b67ffffffffffffffff811115610f1157610f1061064d565b5b610f1b8254610be5565b610f26828285610d4b565b600060209050601f831160018114610f595760008415610f47578287015190505b610f518582610dbc565b865550610fb9565b601f198416610f6786610c2c565b60005b82811015610f8f57848901518255600182019150602085019450602081019050610f6a565b86831015610fac5784890151610fa8601f891682610d9e565b8355505b6001600288020188555050505b50505050505056fea264697066735822122046de98546632593bd1a8fa5254e053ea5ac2c56003532d9223b0f00d014d0b0164736f6c63430008180033",
  "linkReferences": {},
  "deployedLinkReferences": {}
}