{
  "_format": "hh-sol-artifact-1",
  "contractName": "CoinFlip",
  "sourceName": "contracts/CoinFlip.sol",
  "abi": [
    {
      "inputs": [],
      "stateMutability": "nonpayable",
      "type": "constructor"
    },
    {
      "anonymous": false,
      "inputs": [
        {
          "indexed": true,
          "internalType": "address",
          "name": "player",
          "type": "address"
        },
        {
          "indexed": false,
          "internalType": "bool",
          "name": "guess",
          "type": "bool"
        },
        {
          "indexed": false,
          "internalType": "bool",
          "name": "result",
          "type": "bool"
        },
        {
          "indexed": false,
          "internalType": "uint256",
          "name": "amount",
          "type": "uint256"
        },
        {
          "indexed": false,
          "internalType": "bool",
          "name": "win",
          "type": "bool"
        }
      ],
      "name": "CoinFlipped",
      "type": "event"
    },
    {
      "inputs": [
        {
          "internalType": "bool",
          "name": "_guess",
          "type": "bool"
        }
      ],
      "name": "flipCoin",
      "outputs": [],
      "stateMutability": "payable",
      "type": "function"
    },
    {
      "inputs": [],
      "name": "owner",
      "outputs": [
        {
          "internalType": "address",
          "name": "",
          "type": "address"
        }
      ],
      "stateMutability": "view",
      "type": "function"
    },
    {
      "inputs": [],
      "name": "withdraw",
      "outputs": [],
      "stateMutability": "nonpayable",
      "type": "function"
    },
    {
      "stateMutability": "payable",
      "type": "receive"
    }
  ],
  "bytecode": "0x608060405234801561001057600080fd5b50336000806101000a81548173ffffffffffffffffffffffffffffffffffffffff021916908373ffffffffffffffffffffffffffffffffffffffff1602179055506106ba806100606000396000f3fe6080604052600436106100385760003560e01c80633ccfd60b146100445780637b8ff38f1461005b5780638da5cb5b146100775761003f565b3661003f57005b600080fd5b34801561005057600080fd5b506100596100a2565b005b6100756004803603810190610070919061033f565b61019f565b005b34801561008357600080fd5b5061008c6102de565b60405161009991906103ad565b60405180910390f35b60008054906101000a900473ffffffffffffffffffffffffffffffffffffffff1673ffffffffffffffffffffffffffffffffffffffff163373ffffffffffffffffffffffffffffffffffffffff1614610130576040517f08c379a000000000000000000000000000000000000000000000000000000000815260040161012790610425565b60405180910390fd5b600047905060008054906101000a900473ffffffffffffffffffffffffffffffffffffffff1673ffffffffffffffffffffffffffffffffffffffff166108fc829081150290604051600060405180830381858888f1935050505015801561019b573d6000803e3d6000fd5b5050565b600034116101e2576040517f08c379a00000000000000000000000000000000000000000000000000000000081526004016101d990610491565b60405180910390fd5b600080600242336040516020016101fa929190610524565b6040516020818303038152906040528051906020012060001c61021d919061057f565b14905060008215158215151490508015610285573373ffffffffffffffffffffffffffffffffffffffff166108fc60023461025891906105df565b9081150290604051600060405180830381858888f19350505050158015610283573d6000803e3d6000fd5b505b3373ffffffffffffffffffffffffffffffffffffffff167f8815da0914799ea69db4840ee187f75775774cafb9428b5d60fe39a4d2b4b638848434856040516102d1949392919061063f565b60405180910390a2505050565b60008054906101000a900473ffffffffffffffffffffffffffffffffffffffff1681565b600080fd5b60008115159050919050565b61031c81610307565b811461032757600080fd5b50565b60008135905061033981610313565b92915050565b60006020828403121561035557610354610302565b5b60006103638482850161032a565b91505092915050565b600073ffffffffffffffffffffffffffffffffffffffff82169050919050565b60006103978261036c565b9050919050565b6103a78161038c565b82525050565b60006020820190506103c2600083018461039e565b92915050565b600082825260208201905092915050565b7f4f6e6c7920746865206f776e65722063616e2077697468647261770000000000600082015250565b600061040f601b836103c8565b915061041a826103d9565b602082019050919050565b6000602082019050818103600083015261043e81610402565b9050919050565b7f596f75206d75737420776167657220736f6d6520455448000000000000000000600082015250565b600061047b6017836103c8565b915061048682610445565b602082019050919050565b600060208201905081810360008301526104aa8161046e565b9050919050565b6000819050919050565b6000819050919050565b6104d66104d1826104b1565b6104bb565b82525050565b60008160601b9050919050565b60006104f4826104dc565b9050919050565b6000610506826104e9565b9050919050565b61051e6105198261038c565b6104fb565b82525050565b600061053082856104c5565b602082019150610540828461050d565b6014820191508190509392505050565b7f4e487b7100000000000000000000000000000000000000000000000000000000600052601260045260246000fd5b600061058a826104b1565b9150610595836104b1565b9250826105a5576105a4610550565b5b828206905092915050565b7f4e487b7100000000000000000000000000000000000000000000000000000000600052601160045260246000fd5b60006105ea826104b1565b91506105f5836104b1565b9250828202610603816104b1565b9150828204841483151761061a576106196105b0565b5b5092915050565b61062a81610307565b82525050565b610639816104b1565b82525050565b60006080820190506106546000830187610621565b6106616020830186610621565b61066e6040830185610630565b61067b6060830184610621565b9594505050505056fea264697066735822122096ca895b5e6c7e0889b030b67d1d77acef45144745d2b9c76baf8d63a93cdf0164736f6c63430008180033",
  "linkReferences": {},
  "deployedLinkReferences": {}
}